{
  "_format": "hh-sol-artifact-1",
  "contractName": "ProofLayer",
  "sourceName": "contracts/ProofLayer.sol",
  "abi": [
    {
      "anonymous": false,
      "inputs": [
        {
          "indexed": true,
          "internalType": "bytes32",
          "name": "proofHash",
          "type": "bytes32"
        },
        {
          "indexed": true,
          "internalType": "address",
          "name": "creator",
          "type": "address"
        },
        {
          "indexed": false,
          "internalType": "uint256",
          "name": "timestamp",
          "type": "uint256"
        }
      ],
      "name": "ProofAnchored",
      "type": "event"
    },
    {
      "inputs": [
        {
          "internalType": "bytes32",
          "name": "proofHash",
          "type": "bytes32"
        }
      ],
      "name": "anchorProof",
      "outputs": [],
      "stateMutability": "nonpayable",
      "type": "function"
    },
    {
      "inputs": [
        {
          "internalType": "bytes32",
          "name": "proofHash",
          "type": "bytes32"
        }
      ],
      "name": "getProof",
      "outputs": [
        {
          "internalType": "bool",
          "name": "exists",
          "type": "bool"
        },
        {
          "internalType": "address",
          "name": "creator",
          "type": "address"
        },
        {
          "internalType": "uint256",
          "name": "timestamp",
          "type": "uint256"
        }
      ],
      "stateMutability": "view",
      "type": "function"
    },
    {
      "inputs": [
        {
          "internalType": "bytes32",
          "name": "",
          "type": "bytes32"
        }
      ],
      "name": "proofCreator",
      "outputs": [
        {
          "internalType": "address",
          "name": "",
          "type": "address"
        }
      ],
      "stateMutability": "view",
      "type": "function"
    },
    {
      "inputs": [
        {
          "internalType": "bytes32",
          "name": "",
          "type": "bytes32"
        }
      ],
      "name": "proofExists",
      "outputs": [
        {
          "internalType": "bool",
          "name": "",
          "type": "bool"
        }
      ],
      "stateMutability": "view",
      "type": "function"
    },
    {
      "inputs": [
        {
          "internalType": "bytes32",
          "name": "",
          "type": "bytes32"
        }
      ],
      "name": "proofTimestamp",
      "outputs": [
        {
          "internalType": "uint256",
          "name": "",
          "type": "uint256"
        }
      ],
      "stateMutability": "view",
      "type": "function"
    }
  ],
  "bytecode": "0x608060405234801561001057600080fd5b5061057e806100206000396000f3fe608060405234801561001057600080fd5b50600436106100575760003560e01c80631b80bb3a1461005c578063316aaa2d1461008e578063baea703d146100be578063c72290e6146100ee578063d938d2021461010a575b600080fd5b610076600480360381019061007191906103a1565b61013a565b60405161008593929190610443565b60405180910390f35b6100a860048036038101906100a391906103a1565b6101b4565b6040516100b5919061047a565b60405180910390f35b6100d860048036038101906100d391906103a1565b6101cc565b6040516100e59190610495565b60405180910390f35b610108600480360381019061010391906103a1565b6101ff565b005b610124600480360381019061011f91906103a1565b610346565b60405161013191906104b0565b60405180910390f35b600080600080600085815260200190815260200160002060009054906101000a900460ff166001600086815260200190815260200160002060009054906101000a900473ffffffffffffffffffffffffffffffffffffffff1660026000878152602001908152602001600020549250925092509193909250565b60026020528060005260406000206000915090505481565b60016020528060005260406000206000915054906101000a900473ffffffffffffffffffffffffffffffffffffffff1681565b60008082815260200190815260200160002060009054906101000a900460ff161561025f576040517f08c379a000000000000000000000000000000000000000000000000000000000815260040161025690610528565b60405180910390fd5b600160008083815260200190815260200160002060006101000a81548160ff021916908315150217905550336001600083815260200190815260200160002060006101000a81548173ffffffffffffffffffffffffffffffffffffffff021916908373ffffffffffffffffffffffffffffffffffffffff1602179055504260026000838152602001908152602001600020819055503373ffffffffffffffffffffffffffffffffffffffff16817f3ad2f3b700515afdcba4d9dfe971870c4917a2a1e1ae0c0d6c79e8becafc6ca04260405161033b919061047a565b60405180910390a350565b60006020528060005260406000206000915054906101000a900460ff1681565b600080fd5b6000819050919050565b61037e8161036b565b811461038957600080fd5b50565b60008135905061039b81610375565b92915050565b6000602082840312156103b7576103b6610366565b5b60006103c58482850161038c565b91505092915050565b60008115159050919050565b6103e3816103ce565b82525050565b600073ffffffffffffffffffffffffffffffffffffffff82169050919050565b6000610414826103e9565b9050919050565b61042481610409565b82525050565b6000819050919050565b61043d8161042a565b82525050565b600060608201905061045860008301866103da565b610465602083018561041b565b6104726040830184610434565b949350505050565b600060208201905061048f6000830184610434565b92915050565b60006020820190506104aa600083018461041b565b92915050565b60006020820190506104c560008301846103da565b92915050565b600082825260208201905092915050565b7f50726f6f6620616c726561647920616e63686f72656400000000000000000000600082015250565b60006105126016836104cb565b915061051d826104dc565b602082019050919050565b6000602082019050818103600083015261054181610505565b905091905056fea2646970667358221220534118e548f6e8a8262b07ce9c65a792949ea31abbb0e062e1c46378a4ed078b64736f6c63430008140033",
  "linkReferences": {},
  "deployedLinkReferences": {}
}